{
  "contractName": "MiddleWare",
  "abi": [
    {
      "inputs": [
        {
          "internalType": "address",
          "name": "_admin",
          "type": "address"
        },
        {
          "internalType": "contract ERC20",
          "name": "_token",
          "type": "address"
        },
        {
          "internalType": "contract ERC721",
          "name": "_nfttoken",
          "type": "address"
        }
      ],
      "stateMutability": "nonpayable",
      "type": "constructor"
    },
    {
      "anonymous": false,
      "inputs": [
        {
          "indexed": false,
          "internalType": "uint256",
          "name": "tokenId",
          "type": "uint256"
        },
        {
          "indexed": false,
          "internalType": "address",
          "name": "_seller",
          "type": "address"
        },
        {
          "indexed": false,
          "internalType": "uint256",
          "name": "startingPrice",
          "type": "uint256"
        },
        {
          "indexed": false,
          "internalType": "uint256",
          "name": "duration",
          "type": "uint256"
        }
      ],
      "name": "AuctionCreated",
      "type": "event"
    },
    {
      "anonymous": false,
      "inputs": [
        {
          "indexed": false,
          "internalType": "uint256",
          "name": "tokenId",
          "type": "uint256"
        },
        {
          "indexed": false,
          "internalType": "uint256",
          "name": "highestPrice",
          "type": "uint256"
        },
        {
          "indexed": false,
          "internalType": "address",
          "name": "winner",
          "type": "address"
        },
        {
          "indexed": false,
          "internalType": "address",
          "name": "seller",
          "type": "address"
        }
      ],
      "name": "AuctionSuccessful",
      "type": "event"
    },
    {
      "anonymous": false,
      "inputs": [
        {
          "indexed": false,
          "internalType": "uint256",
          "name": "tokenId",
          "type": "uint256"
        },
        {
          "indexed": false,
          "internalType": "uint256",
          "name": "buyNowtPrice",
          "type": "uint256"
        },
        {
          "indexed": false,
          "internalType": "address",
          "name": "buyer",
          "type": "address"
        },
        {
          "indexed": false,
          "internalType": "address",
          "name": "seller",
          "type": "address"
        }
      ],
      "name": "Buy",
      "type": "event"
    },
    {
      "anonymous": false,
      "inputs": [
        {
          "indexed": true,
          "internalType": "address",
          "name": "from",
          "type": "address"
        },
        {
          "indexed": true,
          "internalType": "uint256",
          "name": "id",
          "type": "uint256"
        },
        {
          "indexed": true,
          "internalType": "uint256",
          "name": "_value",
          "type": "uint256"
        }
      ],
      "name": "Deposit",
      "type": "event"
    },
    {
      "anonymous": false,
      "inputs": [
        {
          "indexed": false,
          "internalType": "uint256",
          "name": "tokenId",
          "type": "uint256"
        },
        {
          "indexed": false,
          "internalType": "address",
          "name": "bidder",
          "type": "address"
        },
        {
          "indexed": false,
          "internalType": "uint256",
          "name": "amount",
          "type": "uint256"
        }
      ],
      "name": "HighstBidIncrease",
      "type": "event"
    },
    {
      "stateMutability": "nonpayable",
      "type": "fallback"
    },
    {
      "inputs": [],
      "name": "currentOwner",
      "outputs": [
        {
          "internalType": "address",
          "name": "",
          "type": "address"
        }
      ],
      "stateMutability": "view",
      "type": "function"
    },
    {
      "inputs": [],
      "name": "currentAdmin",
      "outputs": [
        {
          "internalType": "address",
          "name": "",
          "type": "address"
        }
      ],
      "stateMutability": "view",
      "type": "function"
    },
    {
      "inputs": [
        {
          "internalType": "address",
          "name": "_newOwner",
          "type": "address"
        }
      ],
      "name": "transferOwnership",
      "outputs": [
        {
          "internalType": "bool",
          "name": "",
          "type": "bool"
        }
      ],
      "stateMutability": "nonpayable",
      "type": "function"
    },
    {
      "inputs": [
        {
          "internalType": "address",
          "name": "_newAdmin",
          "type": "address"
        }
      ],
      "name": "updateAdmin",
      "outputs": [
        {
          "internalType": "bool",
          "name": "",
          "type": "bool"
        }
      ],
      "stateMutability": "nonpayable",
      "type": "function"
    },
    {
      "inputs": [
        {
          "internalType": "uint256",
          "name": "_id",
          "type": "uint256"
        },
        {
          "internalType": "uint256",
          "name": "amount",
          "type": "uint256"
        }
      ],
      "name": "deposit",
      "outputs": [
        {
          "internalType": "bool",
          "name": "",
          "type": "bool"
        }
      ],
      "stateMutability": "nonpayable",
      "type": "function"
    },
    {
      "inputs": [
        {
          "internalType": "address",
          "name": "_seller",
          "type": "address"
        },
        {
          "internalType": "uint256",
          "name": "_assetId",
          "type": "uint256"
        },
        {
          "internalType": "uint256",
          "name": "_startingPrice",
          "type": "uint256"
        },
        {
          "internalType": "uint256",
          "name": "_buyNowPrice",
          "type": "uint256"
        },
        {
          "internalType": "uint256",
          "name": "_auctionEndTime",
          "type": "uint256"
        },
        {
          "internalType": "address",
          "name": "_platformCommissionReciever",
          "type": "address"
        },
        {
          "internalType": "uint256",
          "name": "_platformCommission",
          "type": "uint256"
        }
      ],
      "name": "createAuction",
      "outputs": [],
      "stateMutability": "nonpayable",
      "type": "function"
    },
    {
      "inputs": [
        {
          "internalType": "uint256",
          "name": "amount",
          "type": "uint256"
        },
        {
          "internalType": "uint256",
          "name": "_assetId",
          "type": "uint256"
        }
      ],
      "name": "bid",
      "outputs": [],
      "stateMutability": "nonpayable",
      "type": "function"
    },
    {
      "inputs": [
        {
          "internalType": "uint256",
          "name": "_assetId",
          "type": "uint256"
        }
      ],
      "name": "auctionEnd",
      "outputs": [],
      "stateMutability": "nonpayable",
      "type": "function"
    },
    {
      "inputs": [
        {
          "internalType": "uint256",
          "name": "_amount",
          "type": "uint256"
        },
        {
          "internalType": "address",
          "name": "_buyer",
          "type": "address"
        },
        {
          "internalType": "uint256",
          "name": "_assetId",
          "type": "uint256"
        }
      ],
      "name": "buy",
      "outputs": [],
      "stateMutability": "nonpayable",
      "type": "function"
    },
    {
      "inputs": [
        {
          "internalType": "uint256",
          "name": "_assetId",
          "type": "uint256"
        }
      ],
      "name": "getHighestBidder",
      "outputs": [
        {
          "internalType": "address",
          "name": "",
          "type": "address"
        }
      ],
      "stateMutability": "view",
      "type": "function"
    },
    {
      "inputs": [
        {
          "internalType": "uint256",
          "name": "_assetId",
          "type": "uint256"
        }
      ],
      "name": "getHighestBid",
      "outputs": [
        {
          "internalType": "uint256",
          "name": "",
          "type": "uint256"
        }
      ],
      "stateMutability": "view",
      "type": "function"
    },
    {
      "inputs": [
        {
          "internalType": "uint256",
          "name": "_assetId",
          "type": "uint256"
        }
      ],
      "name": "getAuctionStatus",
      "outputs": [
        {
          "internalType": "bool",
          "name": "",
          "type": "bool"
        }
      ],
      "stateMutability": "view",
      "type": "function"
    },
    {
      "inputs": [
        {
          "internalType": "uint256",
          "name": "_assetId",
          "type": "uint256"
        }
      ],
      "name": "getAuctionDuration",
      "outputs": [
        {
          "internalType": "uint256",
          "name": "",
          "type": "uint256"
        }
      ],
      "stateMutability": "view",
      "type": "function"
    },
    {
      "inputs": [
        {
          "internalType": "uint256",
          "name": "_assetId",
          "type": "uint256"
        }
      ],
      "name": "getBuyNowPrice",
      "outputs": [
        {
          "internalType": "uint256",
          "name": "",
          "type": "uint256"
        }
      ],
      "stateMutability": "view",
      "type": "function"
    },
    {
      "inputs": [
        {
          "internalType": "uint256",
          "name": "_assetId",
          "type": "uint256"
        }
      ],
      "name": "getPlatformCommisionReciever",
      "outputs": [
        {
          "internalType": "address",
          "name": "",
          "type": "address"
        }
      ],
      "stateMutability": "view",
      "type": "function"
    },
    {
      "inputs": [
        {
          "internalType": "uint256",
          "name": "_assetId",
          "type": "uint256"
        }
      ],
      "name": "getPlatformCommision",
      "outputs": [
        {
          "internalType": "uint256",
          "name": "",
          "type": "uint256"
        }
      ],
      "stateMutability": "view",
      "type": "function"
    }
  ],
  "bytecode": "0x60806040523480156200001157600080fd5b506040516200163c3803806200163c83398101604081905262000034916200009b565b60028054600160a060020a0319908116331790915560018054600160a060020a03958616908316179055600380549385169382169390931790925560048054919093169116179055620000ef565b600160a060020a03811681146200009857600080fd5b50565b600080600060608486031215620000b157600080fd5b8351620000be8162000082565b6020850151909350620000d18162000082565b6040850151909250620000e48162000082565b809150509250925092565b61153d80620000ff6000396000f3fe608060405234801561001057600080fd5b50600436106100fb5760003560e060020a900480638ceb1c3111610095578063c750cb7911610067578063c750cb79146102c6578063e2bbb158146102f2578063e2f273bd14610305578063f2fde38b1461031857005b80638ceb1c311461025e5780638f28864414610271578063b387ef92146102a4578063ba4bcd72146102b557005b806332246e9f116100ce57806332246e9f146101ce578063598647f8146101e15780636739f3a4146101f45780637765c52c1461022157005b80630def4790146100fd57806314cd6f321461014457806320203cf5146101885780632afaca20146101bb575b005b61013161010b366004611209565b60009081526020819052604090206004015460a060020a900467ffffffffffffffff1690565b6040519081526020015b60405180910390f35b610170610152366004611209565b600090815260208190526040902060040154600160a060020a031690565b604051600160a060020a03909116815260200161013b565b610131610196366004611209565b600090815260208190526040902060010154608060020a90046001608060020a031690565b6100fb6101c9366004611239565b61032b565b6100fb6101dc366004611209565b6106c8565b6100fb6101ef36600461126e565b610a01565b610131610202366004611209565b60009081526020819052604090206002015467ffffffffffffffff1690565b61024e61022f366004611209565b60009081526020819052604090206004015460e060020a900460ff1690565b604051901515815260200161013b565b6100fb61026c366004611290565b610d34565b61013161027f366004611209565b600090815260208190526040902060020154608060020a90046001608060020a031690565b600254600160a060020a0316610170565b600154600160a060020a0316610170565b6101706102d4366004611209565b600090815260208190526040902060030154600160a060020a031690565b61024e61030036600461126e565b610fdc565b61024e6103133660046112f3565b6110e8565b61024e6103263660046112f3565b611177565b600154600160a060020a031633146103615760405160e560020a62461bcd02815260040161035890611315565b60405180910390fd5b6000818152602081905260409020600481015460e060020a900460ff1661039d5760405160e560020a62461bcd0281526004016103589061134c565b6001810154608060020a90046001608060020a031684146104295760405160e560020a62461bcd02815260206004820152602560248201527f54686520616d6f756e74206973206c65737320746f206275792074686973206160448201527f73736574210000000000000000000000000000000000000000000000000000006064820152608401610358565b836104795760405160e560020a62461bcd02815260206004820152601a60248201527f54686520616d6f756e742063616e6e6f74206265207a65726f210000000000006044820152606401610358565b80546003820154600160a060020a0390811691161461053d57600380549082015460028301546040517fa9059cbb000000000000000000000000000000000000000000000000000000008152600160a060020a039384169363a9059cbb936104f893911691608060020a9091046001608060020a031690600401611383565b6020604051808303816000875af1158015610517573d6000803e3d6000fd5b505050506040513d601f19601f8201168201806040525081019061053b91906113a5565b505b6003548154600183015460405160e060020a6323b872dd028152600160a060020a0387811660048301529283166024820152608060020a9091046001608060020a031660448201529116906323b872dd906064016020604051808303816000875af11580156105b0573d6000803e3d6000fd5b505050506040513d601f19601f820116820180604052508101906105d491906113a5565b506004805460405160e060020a6323b872dd028152600160a060020a03909116916323b872dd9161060b91309188918891016113c7565b600060405180830381600087803b15801561062557600080fd5b505af1158015610639573d6000803e3d6000fd5b505050506004810180547cff0000000000000000000000000000000000000000000000000000000019169055600181015481546040517f73ee6083753970c82cf2d93ff7bb0432e00e0155c4096741ea134c74f67eb02b926106ba928692608060020a9092046001608060020a0316918891600160a060020a0316906113eb565b60405180910390a150505050565b600154600160a060020a031633146106f55760405160e560020a62461bcd02815260040161035890611315565b6000818152602081905260409020600481015460e060020a900460ff166107315760405160e560020a62461bcd0281526004016103589061134c565b80546003820154600160a060020a0390811691161461090057600481015460a060020a900467ffffffffffffffff16156108275760035460048201546002830154600160a060020a039283169263a9059cbb929081169160a060020a90910467ffffffffffffffff16906107b89061271090608060020a90046001608060020a031661144a565b6107c29190611497565b6040518363ffffffff1660e060020a0281526004016107e2929190611383565b6020604051808303816000875af1158015610801573d6000803e3d6000fd5b505050506040513d601f19601f8201168201806040525081019061082591906113a5565b505b60035481546004830154600160a060020a039283169263a9059cbb9216906108629060a060020a900467ffffffffffffffff166127106114c6565b67ffffffffffffffff166127108560020160109054906101000a90046001608060020a0316610891919061144a565b61089b9190611497565b6040518363ffffffff1660e060020a0281526004016108bb929190611383565b6020604051808303816000875af11580156108da573d6000803e3d6000fd5b505050506040513d601f19601f820116820180604052508101906108fe91906113a5565b505b60048054600383015460405160e060020a6323b872dd028152600160a060020a03928316936323b872dd9361093c9330939116918891016113c7565b600060405180830381600087803b15801561095657600080fd5b505af115801561096a573d6000803e3d6000fd5b505050506004810180547cff00000000000000000000000000000000000000000000000000000000191690556002810154600382015482546040517f667d13eeb54d023f985072e79a9b6a6ddc258d3f9d143a518301df136556cc38936109f5938793608060020a9092046001608060020a031692600160a060020a039182169291909116906113eb565b60405180910390a15050565b6000818152602081905260409020600281015467ffffffffffffffff16421115610a405760405160e560020a62461bcd0281526004016103589061134c565b6002810154608060020a90046001608060020a03168311610acc5760405160e560020a62461bcd02815260206004820152602560248201527f546865726520697320616c72656164792061206869676872206f72206571756160448201527f6c206269640000000000000000000000000000000000000000000000000000006064820152608401610358565b8054600160a060020a0316331415610b4f5760405160e560020a62461bcd02815260206004820152602160248201527f596f7520617265207468652073656c6c657220616e642063616e6e6f7420626960448201527f64000000000000000000000000000000000000000000000000000000000000006064820152608401610358565b6002810154608060020a90046001608060020a031615801590610b84575060038101548154600160a060020a03908116911614155b15610c3457600380549082015460028301546040517fa9059cbb000000000000000000000000000000000000000000000000000000008152600160a060020a039384169363a9059cbb93610bef93911691608060020a9091046001608060020a031690600401611383565b6020604051808303816000875af1158015610c0e573d6000803e3d6000fd5b505050506040513d601f19601f82011682018060405250810190610c3291906113a5565b505b6003808201805473ffffffffffffffffffffffffffffffffffffffff1916339081179091556002830180546001608060020a03808816608060020a029116179055905460405160e060020a6323b872dd028152600160a060020a0391909116916323b872dd91610cab9190309088906004016113c7565b6020604051808303816000875af1158015610cca573d6000803e3d6000fd5b505050506040513d601f19601f82011682018060405250810190610cee91906113a5565b50604080518381523360208201529081018490527f346e0ff9362d72f0417f37add8611e1bb4d675565d374bb399a11e23772ac4a89060600160405180910390a1505050565b600154600160a060020a03163314610d615760405160e560020a62461bcd02815260040161035890611315565b610d6b83426114ef565b9250600060405180610140016040528089600160a060020a03168152602001876001608060020a03168152602001866001608060020a031681526020018567ffffffffffffffff1681526020014267ffffffffffffffff168152602001876001608060020a0316815260200189600160a060020a0316815260200184600160a060020a031681526020018367ffffffffffffffff168152602001600115158152509050603c816060015167ffffffffffffffff161015610e2a57600080fd5b6000878152602081815260409182902083518154600160a060020a0391821673ffffffffffffffffffffffffffffffffffffffff1991821617835592850151848601516001608060020a03908116608060020a908102928216929092176001850155606087015160028501805460808a015160a08b0151851690950267ffffffffffffffff95861668010000000000000000026fffffffffffffffffffffffffffffffff1992909216938616939093171790921617905560c0860151600384018054918416919095161790935560e085015160049092018054610100870151610120880151151560e060020a027cff00000000000000000000000000000000000000000000000000000000199190961660a060020a027fffffffff0000000000000000000000000000000000000000000000000000000090921694909316939093179290921716919091179055517fc9050d42180a61cb0d9ebb8ad118b62fe6eab12cf12ff752c4a0cc7da9ddf62790610fca9089908b908a908990938452600160a060020a039290921660208401526040830152606082015260800190565b60405180910390a15050505050505050565b60008082116110305760405160e560020a62461bcd02815260206004820152601760248201527f56616c7565206e6565647320746f206265206e6f7420300000000000000000006044820152606401610358565b60035460015460405160e060020a6323b872dd028152600160a060020a03928316926323b872dd9261106c9233929091169087906004016113c7565b6020604051808303816000875af115801561108b573d6000803e3d6000fd5b505050506040513d601f19601f820116820180604052508101906110af91906113a5565b506040518290849033907f90890809c654f11d6e72a28fa60149770a0d11ec6c92319d6ceb2bb0a4ea1a1590600090a450600192915050565b600254600090600160a060020a031633146111485760405160e560020a62461bcd02815260206004820152601160248201527f53656e646572206e6f74204f776e65722e0000000000000000000000000000006044820152606401610358565b506001805473ffffffffffffffffffffffffffffffffffffffff1916600160a060020a0383161781555b919050565b600254600090600160a060020a031633146111d75760405160e560020a62461bcd02815260206004820152601160248201527f53656e646572206e6f74204f776e65722e0000000000000000000000000000006044820152606401610358565b5060028054600160a060020a03831673ffffffffffffffffffffffffffffffffffffffff199091161790556001919050565b60006020828403121561121b57600080fd5b5035919050565b8035600160a060020a038116811461117257600080fd5b60008060006060848603121561124e57600080fd5b8335925061125e60208501611222565b9150604084013590509250925092565b6000806040838503121561128157600080fd5b50508035926020909101359150565b600080600080600080600060e0888a0312156112ab57600080fd5b6112b488611222565b9650602088013595506040880135945060608801359350608088013592506112de60a08901611222565b915060c0880135905092959891949750929550565b60006020828403121561130557600080fd5b61130e82611222565b9392505050565b60208082526011908201527f53656e646572206e6f742041646d696e2e000000000000000000000000000000604082015260600190565b6020808252601e908201527f546869732061756374696f6e20697320616c726561647920656e646564210000604082015260600190565b600160a060020a039290921682526001608060020a0316602082015260400190565b6000602082840312156113b757600080fd5b8151801515811461130e57600080fd5b600160a060020a039384168152919092166020820152604081019190915260600190565b9384526001608060020a03929092166020840152600160a060020a03908116604084015216606082015260800190565b7f4e487b7100000000000000000000000000000000000000000000000000000000600052601160045260246000fd5b60006001608060020a038084168061148b577f4e487b7100000000000000000000000000000000000000000000000000000000600052601260045260246000fd5b92169190910492915050565b60006001608060020a03808316818516818304811182151516156114bd576114bd61141b565b02949350505050565b600067ffffffffffffffff838116908316818110156114e7576114e761141b565b039392505050565b600082198211156115025761150261141b565b50019056fea264697066735822122030bb2d30171168ac9dd5f9c3f9106cf6dc161ba85a322929da820777d0ae01aa64736f6c634300080b0033",
  "immutableReferences": {},
  "source": "pragma solidity ^0.8.0;\r\n\r\nimport \"@openzeppelin/contracts/token/ERC20/ERC20.sol\";\r\nimport \"@openzeppelin/contracts/token/ERC721/ERC721.sol\";\r\n\r\ncontract MiddleWare{\r\n    \r\n    struct Auction {\r\n        address seller;         // Current owner of NFT\r\n        uint128 startingPrice;  // Price (in wei) at beginning of auction\r\n        uint128 buyNowPrice;  // Price (in wei) at beginning of auction\r\n        uint64 auctionEndTime;  // Duration (in seconds) of auction\r\n        uint64 startedAt;       // Time when auction started \r\n        uint128 highestBid;      // Price at end of auction\r\n        address highestBidder;   // winner of the auction\r\n        address platformCommissionReciever;\r\n        uint64 platformCommission;\r\n        bool active; //status of the Auction\r\n    }\r\n    \r\n    mapping (uint256 => Auction) tokenIdToAuction;\r\n    // mapping(address => mapping(uint => uint)) public pendingReturn;\r\n    \r\n    address private admin;      \r\n    address private owner;      \r\n    ERC20 private tokenerc20;         \r\n    ERC721 private tokenerc721;\r\n    \r\n    modifier onlyOwner {\r\n        require(msg.sender == owner, \"Sender not Owner.\");\r\n        _;\r\n    }\r\n    \r\n    modifier onlyAdmin{\r\n        require(msg.sender == admin, \"Sender not Admin.\");\r\n        _;\r\n    }\r\n    \r\n    // bool public ended = false;\r\n    \r\n    event AuctionCreated(uint256 tokenId, address _seller, uint256 startingPrice, uint256 duration);\r\n    event AuctionSuccessful(uint256 tokenId, uint256 highestPrice, address winner, address seller);\r\n    event Buy(uint256 tokenId, uint256 buyNowtPrice, address buyer, address seller);\r\n    event HighstBidIncrease(uint256 tokenId, address bidder, uint256 amount);\r\n    \r\n    constructor(address _admin, ERC20 _token, ERC721 _nfttoken){\r\n        owner = msg.sender;\r\n        admin = _admin;\r\n        tokenerc20 = _token; \r\n        tokenerc721 = _nfttoken;\r\n    }\r\n    \r\n    event Deposit(address indexed from, uint indexed id, uint indexed _value);\r\n\r\n    fallback() external{  }\r\n     \r\n    function currentOwner() public view virtual returns (address) {\r\n        return owner;\r\n    }\r\n    \r\n    function currentAdmin() public view virtual returns (address) {\r\n        return admin;\r\n    }\r\n    \r\n    function transferOwnership(address _newOwner)onlyOwner external returns(bool) {\r\n        owner = _newOwner;\r\n        return true;\r\n    }\r\n    \r\n    function updateAdmin(address _newAdmin)onlyOwner external returns(bool){\r\n        admin = _newAdmin;\r\n        return true;\r\n    }\r\n    \r\n    function deposit(uint256 _id, uint256 amount) external returns (bool) {\r\n        require(amount > 0, \"Value needs to be not 0\");\r\n        tokenerc20.transferFrom(msg.sender, admin, amount);\r\n        emit Deposit(msg.sender, _id, amount);\r\n        return true;\r\n    }\r\n    \r\n    function createAuction(address _seller, uint256 _assetId, uint256 _startingPrice,uint256 _buyNowPrice, uint256 _auctionEndTime, address _platformCommissionReciever, uint256 _platformCommission)onlyAdmin public{\r\n        _auctionEndTime = block.timestamp + _auctionEndTime;\r\n        \r\n        Auction memory auction = Auction( \r\n                _seller,\r\n                uint128(_startingPrice),\r\n                uint128(_buyNowPrice),\r\n                uint64(_auctionEndTime),\r\n                uint64(block.timestamp),\r\n                uint128(_startingPrice),\r\n                _seller,\r\n                address(_platformCommissionReciever),\r\n                uint64(_platformCommission),\r\n                true\r\n            );\r\n        \r\n        require(auction.auctionEndTime >= 1 minutes);\r\n        tokenIdToAuction[_assetId] = auction;\r\n\r\n        emit AuctionCreated(_assetId, _seller, _startingPrice, _auctionEndTime);\r\n    }\r\n    \r\n    function bid(uint amount, uint _assetId) public{\r\n        \r\n        Auction storage auction = tokenIdToAuction[_assetId];\r\n        require(block.timestamp <= auction.auctionEndTime, \"This auction is already ended!\");\r\n        require(amount > auction.highestBid, \"There is already a highr or equal bid\");\r\n        require(msg.sender!=auction.seller, \"You are the seller and cannot bid\");\r\n        \r\n        if(auction.highestBid != 0 && auction.seller !=auction.highestBidder){\r\n            tokenerc20.transfer(auction.highestBidder, auction.highestBid);\r\n            // pendingReturn[auction.highstBidder][_assetId] += auction.highstBid;\r\n        }\r\n        \r\n        auction.highestBidder = msg.sender;\r\n        auction.highestBid = uint128(amount);\r\n        \r\n        tokenerc20.transferFrom(msg.sender, address(this), amount);\r\n        emit HighstBidIncrease(_assetId, msg.sender, amount);\r\n    }\r\n    \r\n    // function withdraw(uint _assetId) public returns(bool){ \r\n    //     require(pendingReturn[msg.sender][_assetId]>0, \"Nothing to withdraw\");\r\n        \r\n    //     uint256 amount = pendingReturn[msg.sender][_assetId];\r\n    //     if(amount > 0){\r\n    //         pendingReturn[msg.sender][_assetId] = 0;\r\n    //         tokenerc20.transfer(msg.sender, amount);\r\n    //     }\r\n    //     return true;\r\n    // }\r\n    \r\n    function auctionEnd(uint _assetId)onlyAdmin public{\r\n        Auction storage auction = tokenIdToAuction[_assetId];\r\n        require(auction.active, \"This auction is already ended!\");\r\n        // require(block.timestamp >= auction.auctionEndTime, \"The auction is not ended yet!\");\r\n        \r\n        if(auction.highestBidder!=auction.seller){\r\n            if(auction.platformCommission!=0){\r\n                // settling the platform commission\r\n            tokenerc20.transfer(auction.platformCommissionReciever, auction.highestBid / 10000 * auction.platformCommission);\r\n            }\r\n            \r\n            // settling the bid amount to seller\r\n            tokenerc20.transfer(auction.seller, auction.highestBid / 10000 * (10000 - auction.platformCommission));\r\n        }\r\n        \r\n        // trasfering the auction product to the winner\r\n        tokenerc721.transferFrom(address(this),auction.highestBidder, _assetId);\r\n        \r\n        auction.active = false;\r\n        emit AuctionSuccessful(_assetId, auction.highestBid, auction.highestBidder, auction.seller);\r\n    }\r\n    \r\n    function buy(uint _amount, address _buyer, uint _assetId) onlyAdmin public{\r\n        Auction storage auction = tokenIdToAuction[_assetId];\r\n        \r\n        require(auction.active, \"This auction is already ended!\");\r\n        require(_amount == auction.buyNowPrice, \"The amount is less to buy this asset!\");\r\n        require(_amount!=0, \"The amount cannot be zero!\");\r\n        \r\n        if(auction.highestBidder!=auction.seller){\r\n            tokenerc20.transfer(auction.highestBidder, auction.highestBid);\r\n        }\r\n        tokenerc20.transferFrom(_buyer, auction.seller, auction.buyNowPrice);\r\n        tokenerc721.transferFrom(address(this), _buyer, _assetId);\r\n        \r\n        auction.active = false;\r\n        emit Buy(_assetId, auction.buyNowPrice, _buyer, auction.seller);\r\n    }\r\n    \r\n    function getHighestBidder(uint _assetId)public view returns(address){\r\n        Auction storage auction = tokenIdToAuction[_assetId];\r\n        return(auction.highestBidder);\r\n    }\r\n    \r\n    function getHighestBid(uint _assetId)public view returns(uint){\r\n        Auction storage auction = tokenIdToAuction[_assetId];\r\n        return(auction.highestBid);\r\n    }\r\n    \r\n    function getAuctionStatus(uint _assetId)public view returns(bool){\r\n        Auction storage auction = tokenIdToAuction[_assetId];\r\n        return(auction.active);\r\n    }\r\n    \r\n    function getAuctionDuration(uint _assetId)public view returns(uint){\r\n        Auction storage auction = tokenIdToAuction[_assetId];\r\n        return (auction.auctionEndTime);\r\n    }\r\n    function getBuyNowPrice(uint _assetId)public view returns(uint){\r\n        Auction storage auction = tokenIdToAuction[_assetId];\r\n        return (auction.buyNowPrice);\r\n    }\r\n    function getPlatformCommisionReciever(uint _assetId)public view returns(address){\r\n        Auction storage auction = tokenIdToAuction[_assetId];\r\n        return (auction.platformCommissionReciever);\r\n    }\r\n    function getPlatformCommision(uint _assetId)public view returns(uint){\r\n        Auction storage auction = tokenIdToAuction[_assetId];\r\n        return (auction.platformCommission);\r\n    }\r\n}",
  "sourcePath": "C:\\ACCUBITS\\TASK\\DEC2021\\nft-marketplace-smartcontracts\\contracts\\Middleware.sol",
  "compiler": {
    "name": "solc",
    "version": "0.8.11+commit.d7f03943.Emscripten.clang"
  },
  "schemaVersion": "3.4.3",
  "updatedAt": "2022-01-25T15:19:53.833Z",
  "devdoc": {
    "kind": "dev",
    "methods": {},
    "version": 1
  },
  "userdoc": {
    "kind": "user",
    "methods": {},
    "version": 1
  }
}