{
  "contractName": "NFTMarketplaceUpgradable",
  "abi": [
    {
      "anonymous": false,
      "inputs": [
        {
          "indexed": true,
          "internalType": "address",
          "name": "owner",
          "type": "address"
        },
        {
          "indexed": true,
          "internalType": "address",
          "name": "approved",
          "type": "address"
        },
        {
          "indexed": true,
          "internalType": "uint256",
          "name": "tokenId",
          "type": "uint256"
        }
      ],
      "name": "Approval",
      "type": "event"
    },
    {
      "anonymous": false,
      "inputs": [
        {
          "indexed": true,
          "internalType": "address",
          "name": "owner",
          "type": "address"
        },
        {
          "indexed": true,
          "internalType": "address",
          "name": "operator",
          "type": "address"
        },
        {
          "indexed": false,
          "internalType": "bool",
          "name": "approved",
          "type": "bool"
        }
      ],
      "name": "ApprovalForAll",
      "type": "event"
    },
    {
      "anonymous": false,
      "inputs": [
        {
          "indexed": true,
          "internalType": "address",
          "name": "previousOwner",
          "type": "address"
        },
        {
          "indexed": true,
          "internalType": "address",
          "name": "newOwner",
          "type": "address"
        }
      ],
      "name": "OwnershipTransferred",
      "type": "event"
    },
    {
      "anonymous": false,
      "inputs": [
        {
          "indexed": false,
          "internalType": "address",
          "name": "account",
          "type": "address"
        }
      ],
      "name": "Paused",
      "type": "event"
    },
    {
      "anonymous": false,
      "inputs": [
        {
          "indexed": true,
          "internalType": "bytes32",
          "name": "role",
          "type": "bytes32"
        },
        {
          "indexed": true,
          "internalType": "bytes32",
          "name": "previousAdminRole",
          "type": "bytes32"
        },
        {
          "indexed": true,
          "internalType": "bytes32",
          "name": "newAdminRole",
          "type": "bytes32"
        }
      ],
      "name": "RoleAdminChanged",
      "type": "event"
    },
    {
      "anonymous": false,
      "inputs": [
        {
          "indexed": true,
          "internalType": "bytes32",
          "name": "role",
          "type": "bytes32"
        },
        {
          "indexed": true,
          "internalType": "address",
          "name": "account",
          "type": "address"
        },
        {
          "indexed": true,
          "internalType": "address",
          "name": "sender",
          "type": "address"
        }
      ],
      "name": "RoleGranted",
      "type": "event"
    },
    {
      "anonymous": false,
      "inputs": [
        {
          "indexed": true,
          "internalType": "bytes32",
          "name": "role",
          "type": "bytes32"
        },
        {
          "indexed": true,
          "internalType": "address",
          "name": "account",
          "type": "address"
        },
        {
          "indexed": true,
          "internalType": "address",
          "name": "sender",
          "type": "address"
        }
      ],
      "name": "RoleRevoked",
      "type": "event"
    },
    {
      "anonymous": false,
      "inputs": [
        {
          "indexed": true,
          "internalType": "address",
          "name": "from",
          "type": "address"
        },
        {
          "indexed": true,
          "internalType": "address",
          "name": "to",
          "type": "address"
        },
        {
          "indexed": true,
          "internalType": "uint256",
          "name": "tokenId",
          "type": "uint256"
        }
      ],
      "name": "Transfer",
      "type": "event"
    },
    {
      "anonymous": false,
      "inputs": [
        {
          "indexed": false,
          "internalType": "address",
          "name": "account",
          "type": "address"
        }
      ],
      "name": "Unpaused",
      "type": "event"
    },
    {
      "inputs": [],
      "name": "ADMIN_ROLE",
      "outputs": [
        {
          "internalType": "bytes32",
          "name": "",
          "type": "bytes32"
        }
      ],
      "stateMutability": "view",
      "type": "function"
    },
    {
      "inputs": [],
      "name": "DEFAULT_ADMIN_ROLE",
      "outputs": [
        {
          "internalType": "bytes32",
          "name": "",
          "type": "bytes32"
        }
      ],
      "stateMutability": "view",
      "type": "function"
    },
    {
      "inputs": [],
      "name": "MINTER_ROLE",
      "outputs": [
        {
          "internalType": "bytes32",
          "name": "",
          "type": "bytes32"
        }
      ],
      "stateMutability": "view",
      "type": "function"
    },
    {
      "inputs": [],
      "name": "PAUSER_ROLE",
      "outputs": [
        {
          "internalType": "bytes32",
          "name": "",
          "type": "bytes32"
        }
      ],
      "stateMutability": "view",
      "type": "function"
    },
    {
      "inputs": [
        {
          "internalType": "address",
          "name": "to",
          "type": "address"
        },
        {
          "internalType": "uint256",
          "name": "tokenId",
          "type": "uint256"
        }
      ],
      "name": "approve",
      "outputs": [],
      "stateMutability": "nonpayable",
      "type": "function"
    },
    {
      "inputs": [
        {
          "internalType": "address",
          "name": "owner",
          "type": "address"
        }
      ],
      "name": "balanceOf",
      "outputs": [
        {
          "internalType": "uint256",
          "name": "",
          "type": "uint256"
        }
      ],
      "stateMutability": "view",
      "type": "function"
    },
    {
      "inputs": [
        {
          "internalType": "uint256",
          "name": "tokenId",
          "type": "uint256"
        }
      ],
      "name": "burn",
      "outputs": [],
      "stateMutability": "nonpayable",
      "type": "function"
    },
    {
      "inputs": [
        {
          "internalType": "uint256",
          "name": "tokenId",
          "type": "uint256"
        }
      ],
      "name": "getApproved",
      "outputs": [
        {
          "internalType": "address",
          "name": "",
          "type": "address"
        }
      ],
      "stateMutability": "view",
      "type": "function"
    },
    {
      "inputs": [
        {
          "internalType": "bytes32",
          "name": "role",
          "type": "bytes32"
        }
      ],
      "name": "getRoleAdmin",
      "outputs": [
        {
          "internalType": "bytes32",
          "name": "",
          "type": "bytes32"
        }
      ],
      "stateMutability": "view",
      "type": "function"
    },
    {
      "inputs": [
        {
          "internalType": "bytes32",
          "name": "role",
          "type": "bytes32"
        },
        {
          "internalType": "uint256",
          "name": "index",
          "type": "uint256"
        }
      ],
      "name": "getRoleMember",
      "outputs": [
        {
          "internalType": "address",
          "name": "",
          "type": "address"
        }
      ],
      "stateMutability": "view",
      "type": "function"
    },
    {
      "inputs": [
        {
          "internalType": "bytes32",
          "name": "role",
          "type": "bytes32"
        }
      ],
      "name": "getRoleMemberCount",
      "outputs": [
        {
          "internalType": "uint256",
          "name": "",
          "type": "uint256"
        }
      ],
      "stateMutability": "view",
      "type": "function"
    },
    {
      "inputs": [
        {
          "internalType": "bytes32",
          "name": "role",
          "type": "bytes32"
        },
        {
          "internalType": "address",
          "name": "account",
          "type": "address"
        }
      ],
      "name": "hasRole",
      "outputs": [
        {
          "internalType": "bool",
          "name": "",
          "type": "bool"
        }
      ],
      "stateMutability": "view",
      "type": "function"
    },
    {
      "inputs": [
        {
          "internalType": "address",
          "name": "owner",
          "type": "address"
        },
        {
          "internalType": "address",
          "name": "operator",
          "type": "address"
        }
      ],
      "name": "isApprovedForAll",
      "outputs": [
        {
          "internalType": "bool",
          "name": "",
          "type": "bool"
        }
      ],
      "stateMutability": "view",
      "type": "function"
    },
    {
      "inputs": [],
      "name": "name",
      "outputs": [
        {
          "internalType": "string",
          "name": "",
          "type": "string"
        }
      ],
      "stateMutability": "view",
      "type": "function"
    },
    {
      "inputs": [],
      "name": "owner",
      "outputs": [
        {
          "internalType": "address",
          "name": "",
          "type": "address"
        }
      ],
      "stateMutability": "view",
      "type": "function"
    },
    {
      "inputs": [
        {
          "internalType": "uint256",
          "name": "tokenId",
          "type": "uint256"
        }
      ],
      "name": "ownerOf",
      "outputs": [
        {
          "internalType": "address",
          "name": "",
          "type": "address"
        }
      ],
      "stateMutability": "view",
      "type": "function"
    },
    {
      "inputs": [],
      "name": "paused",
      "outputs": [
        {
          "internalType": "bool",
          "name": "",
          "type": "bool"
        }
      ],
      "stateMutability": "view",
      "type": "function"
    },
    {
      "inputs": [],
      "name": "renounceOwnership",
      "outputs": [],
      "stateMutability": "nonpayable",
      "type": "function"
    },
    {
      "inputs": [
        {
          "internalType": "bytes32",
          "name": "role",
          "type": "bytes32"
        },
        {
          "internalType": "address",
          "name": "account",
          "type": "address"
        }
      ],
      "name": "renounceRole",
      "outputs": [],
      "stateMutability": "nonpayable",
      "type": "function"
    },
    {
      "inputs": [
        {
          "internalType": "bytes32",
          "name": "role",
          "type": "bytes32"
        },
        {
          "internalType": "address",
          "name": "account",
          "type": "address"
        }
      ],
      "name": "revokeRole",
      "outputs": [],
      "stateMutability": "nonpayable",
      "type": "function"
    },
    {
      "inputs": [
        {
          "internalType": "address",
          "name": "from",
          "type": "address"
        },
        {
          "internalType": "address",
          "name": "to",
          "type": "address"
        },
        {
          "internalType": "uint256",
          "name": "tokenId",
          "type": "uint256"
        }
      ],
      "name": "safeTransferFrom",
      "outputs": [],
      "stateMutability": "nonpayable",
      "type": "function"
    },
    {
      "inputs": [
        {
          "internalType": "address",
          "name": "from",
          "type": "address"
        },
        {
          "internalType": "address",
          "name": "to",
          "type": "address"
        },
        {
          "internalType": "uint256",
          "name": "tokenId",
          "type": "uint256"
        },
        {
          "internalType": "bytes",
          "name": "_data",
          "type": "bytes"
        }
      ],
      "name": "safeTransferFrom",
      "outputs": [],
      "stateMutability": "nonpayable",
      "type": "function"
    },
    {
      "inputs": [
        {
          "internalType": "address",
          "name": "operator",
          "type": "address"
        },
        {
          "internalType": "bool",
          "name": "approved",
          "type": "bool"
        }
      ],
      "name": "setApprovalForAll",
      "outputs": [],
      "stateMutability": "nonpayable",
      "type": "function"
    },
    {
      "inputs": [],
      "name": "symbol",
      "outputs": [
        {
          "internalType": "string",
          "name": "",
          "type": "string"
        }
      ],
      "stateMutability": "view",
      "type": "function"
    },
    {
      "inputs": [
        {
          "internalType": "uint256",
          "name": "index",
          "type": "uint256"
        }
      ],
      "name": "tokenByIndex",
      "outputs": [
        {
          "internalType": "uint256",
          "name": "",
          "type": "uint256"
        }
      ],
      "stateMutability": "view",
      "type": "function"
    },
    {
      "inputs": [
        {
          "internalType": "address",
          "name": "owner",
          "type": "address"
        },
        {
          "internalType": "uint256",
          "name": "index",
          "type": "uint256"
        }
      ],
      "name": "tokenOfOwnerByIndex",
      "outputs": [
        {
          "internalType": "uint256",
          "name": "",
          "type": "uint256"
        }
      ],
      "stateMutability": "view",
      "type": "function"
    },
    {
      "inputs": [],
      "name": "totalSupply",
      "outputs": [
        {
          "internalType": "uint256",
          "name": "",
          "type": "uint256"
        }
      ],
      "stateMutability": "view",
      "type": "function"
    },
    {
      "inputs": [
        {
          "internalType": "address",
          "name": "from",
          "type": "address"
        },
        {
          "internalType": "address",
          "name": "to",
          "type": "address"
        },
        {
          "internalType": "uint256",
          "name": "tokenId",
          "type": "uint256"
        }
      ],
      "name": "transferFrom",
      "outputs": [],
      "stateMutability": "nonpayable",
      "type": "function"
    },
    {
      "inputs": [
        {
          "internalType": "string",
          "name": "name",
          "type": "string"
        },
        {
          "internalType": "string",
          "name": "symbol",
          "type": "string"
        },
        {
          "internalType": "string",
          "name": "baseTokenURI",
          "type": "string"
        },
        {
          "internalType": "address",
          "name": "rootAdmin",
          "type": "address"
        }
      ],
      "name": "initialize",
      "outputs": [],
      "stateMutability": "nonpayable",
      "type": "function"
    },
    {
      "inputs": [
        {
          "internalType": "uint256",
          "name": "tokenId",
          "type": "uint256"
        }
      ],
      "name": "tokenURI",
      "outputs": [
        {
          "internalType": "string",
          "name": "",
          "type": "string"
        }
      ],
      "stateMutability": "view",
      "type": "function"
    },
    {
      "inputs": [
        {
          "internalType": "address",
          "name": "newOwner",
          "type": "address"
        }
      ],
      "name": "transferOwnership",
      "outputs": [],
      "stateMutability": "nonpayable",
      "type": "function"
    },
    {
      "inputs": [
        {
          "internalType": "bytes32",
          "name": "role",
          "type": "bytes32"
        },
        {
          "internalType": "address",
          "name": "account",
          "type": "address"
        }
      ],
      "name": "grantRole",
      "outputs": [],
      "stateMutability": "nonpayable",
      "type": "function"
    },
    {
      "inputs": [
        {
          "internalType": "address",
          "name": "newAdmin",
          "type": "address"
        }
      ],
      "name": "changeRootAdmin",
      "outputs": [],
      "stateMutability": "nonpayable",
      "type": "function"
    },
    {
      "inputs": [
        {
          "internalType": "address",
          "name": "account",
          "type": "address"
        },
        {
          "internalType": "bytes32",
          "name": "role",
          "type": "bytes32"
        }
      ],
      "name": "addMinterOrPauser",
      "outputs": [],
      "stateMutability": "nonpayable",
      "type": "function"
    },
    {
      "inputs": [
        {
          "internalType": "address",
          "name": "receiver",
          "type": "address"
        },
        {
          "internalType": "uint256",
          "name": "collectibleId",
          "type": "uint256"
        },
        {
          "internalType": "string",
          "name": "IPFSHash",
          "type": "string"
        }
      ],
      "name": "mint",
      "outputs": [],
      "stateMutability": "nonpayable",
      "type": "function"
    },
    {
      "inputs": [
        {
          "internalType": "bool",
          "name": "approval",
          "type": "bool"
        }
      ],
      "name": "setApprovalForOwner",
      "outputs": [],
      "stateMutability": "nonpayable",
      "type": "function"
    },
    {
      "inputs": [
        {
          "internalType": "bool",
          "name": "approval",
          "type": "bool"
        },
        {
          "internalType": "address",
          "name": "minterAccount",
          "type": "address"
        }
      ],
      "name": "setApprovalForMinter",
      "outputs": [],
      "stateMutability": "nonpayable",
      "type": "function"
    },
    {
      "inputs": [
        {
          "internalType": "address",
          "name": "account",
          "type": "address"
        }
      ],
      "name": "isApprovedForOwner",
      "outputs": [
        {
          "internalType": "bool",
          "name": "approval",
          "type": "bool"
        }
      ],
      "stateMutability": "view",
      "type": "function"
    },
    {
      "inputs": [],
      "name": "pause",
      "outputs": [],
      "stateMutability": "nonpayable",
      "type": "function"
    },
    {
      "inputs": [],
      "name": "unpause",
      "outputs": [],
      "stateMutability": "nonpayable",
      "type": "function"
    },
    {
      "inputs": [
        {
          "internalType": "bytes4",
          "name": "interfaceId",
          "type": "bytes4"
        }
      ],
      "name": "supportsInterface",
      "outputs": [
        {
          "internalType": "bool",
          "name": "",
          "type": "bool"
        }
      ],
      "stateMutability": "view",
      "type": "function"
    }
  ],
  "bytecode": "0x608060405234801561001057600080fd5b506137e7806100206000396000f3fe608060405234801561001057600080fd5b5060043610610270576000357c01000000000000000000000000000000000000000000000000000000009004806370a0823111610163578063a217fddf116100e0578063d3fc9864116100a4578063d3fc986414610511578063d539139314610524578063d547741f14610539578063e63ab1e91461054c578063e985e9c514610561578063f2fde38b1461057457600080fd5b8063a217fddf146104bd578063a22cb465146104c5578063b88d4fde146104d8578063c87b56dd146104eb578063ca15c873146104fe57600080fd5b80638670a86e116101275780638670a86e1461046b5780638da5cb5b1461047e5780639010d07c1461048f57806391d14854146104a257806395d89b41146104b557600080fd5b806370a0823114610420578063715018a6146104335780637536fad51461043b57806375b238fc1461044e5780638456cb591461046357600080fd5b806336461704116101f15780634f6ccce7116101b55780634f6ccce7146103c85780635c6d8da1146103db5780635c975abb146103ee5780636352211e146103fa57806366eb463f1461040d57600080fd5b8063364617041461037457806336568abe146103875780633f4ba83a1461039a57806342842e0e146103a257806342966c68146103b557600080fd5b806318160ddd1161023857806318160ddd1461030557806323b872dd14610318578063248a9ca31461032b5780632f2ff15d1461034e5780632f745c591461036157600080fd5b806301ffc9a71461027557806306fdde031461029d578063081812fc146102b2578063095ea7b3146102dd57806316508194146102f2575b600080fd5b610288610283366004612edf565b610587565b60405190151581526020015b60405180910390f35b6102a5610598565b6040516102949190612f54565b6102c56102c0366004612f67565b61062a565b604051600160a060020a039091168152602001610294565b6102f06102eb366004612f9c565b6106d8565b005b6102f0610300366004612fd6565b610810565b61012f545b604051908152602001610294565b6102f0610326366004612ff1565b61083b565b61030a610339366004612f67565b60009081526065602052604090206001015490565b6102f061035c36600461302d565b610870565b61030a61036f366004612f9c565b61091d565b6102f0610382366004612f9c565b6109c9565b6102f061039536600461302d565b610a7d565b6102f0610a9f565b6102f06103b0366004612ff1565b610b43565b6102f06103c3366004612f67565b610b5e565b61030a6103d6366004612f67565b610be8565b6102f06103e9366004613108565b610c91565b6101915460ff16610288565b6102c5610408366004612f67565b610d10565b6102f061041b3660046131a1565b610d9e565b61030a61042e3660046131a1565b610deb565b6102f0610e88565b6102f06104493660046131bc565b610eff565b61030a60008051602061379283398151915281565b6102f0610f70565b6102886104793660046131a1565b611012565b60c954600160a060020a03166102c5565b6102c561049d3660046131e6565b611041565b6102886104b036600461302d565b611059565b6102a5611084565b61030a600081565b6102f06104d3366004613208565b611093565b6102f06104e6366004613232565b61115c565b6102a56104f9366004612f67565b611197565b61030a61050c366004612f67565b61134a565b6102f061051f3660046132ae565b611361565b61030a60008051602061377283398151915281565b6102f061054736600461302d565b61140f565b61030a60008051602061375283398151915281565b61028861056f366004613305565b611419565b6102f06105823660046131a1565b611448565b600061059282611494565b92915050565b606060fb80546105a790613321565b80601f01602080910402602001604051908101604052809291908181526020018280546105d390613321565b80156106205780601f106105f557610100808354040283529160200191610620565b820191906000526020600020905b81548152906001019060200180831161060357829003601f168201915b5050505050905090565b600081815260fd6020526040812054600160a060020a03166106bc5760405160e560020a62461bcd02815260206004820152602c60248201527f4552433732313a20617070726f76656420717565727920666f72206e6f6e657860448201527f697374656e7420746f6b656e000000000000000000000000000000000000000060648201526084015b60405180910390fd5b50600090815260ff6020526040902054600160a060020a031690565b60006106e382610d10565b905080600160a060020a031683600160a060020a031614156107705760405160e560020a62461bcd02815260206004820152602160248201527f4552433732313a20617070726f76616c20746f2063757272656e74206f776e6560448201527f720000000000000000000000000000000000000000000000000000000000000060648201526084016106b3565b33600160a060020a038216148061078c575061078c8133611419565b6108015760405160e560020a62461bcd02815260206004820152603860248201527f4552433732313a20617070726f76652063616c6c6572206973206e6f74206f7760448201527f6e6572206e6f7220617070726f76656420666f7220616c6c000000000000000060648201526084016106b3565b61080b83836114d2565b505050565b600061082b6000805160206137928339815191526000611041565b90506108378183611093565b5050565b610846335b82611540565b6108655760405160e560020a62461bcd0281526004016106b390613359565b61080b83838361162b565b6000805160206137928339815191528214156109135761089d60008051602061379283398151915261134a565b156109135760405160e560020a62461bcd02815260206004820152602760248201527f65786163746c79206f6e6520616464726573732063616e20686176652061646d60448201527f696e20726f6c650000000000000000000000000000000000000000000000000060648201526084016106b3565b6108378282611809565b600061092883610deb565b821061099f5760405160e560020a62461bcd02815260206004820152602b60248201527f455243373231456e756d657261626c653a206f776e657220696e646578206f7560448201527f74206f6620626f756e647300000000000000000000000000000000000000000060648201526084016106b3565b50600160a060020a0391909116600090815261012d60209081526040808320938352929052205490565b6109e160008051602061379283398151915233611059565b806109f6575060c954600160a060020a031633145b610a455760405160e560020a62461bcd02815260206004820152601460248201527f5265737472696374656420746f2061646d696e2e00000000000000000000000060448201526064016106b3565b600080516020613772833981519152811480610a6e575060008051602061375283398151915281145b1561083757610837818361182b565b610a878282611835565b600082815260976020526040902061080b90826118c0565b610ab760008051602061379283398151915233611059565b80610ad55750610ad560008051602061375283398151915233611059565b80610aea575060c954600160a060020a031633145b610b395760405160e560020a62461bcd02815260206004820152601560248201527f5265737472696374656420746f207061757365722e000000000000000000000060448201526064016106b3565b610b416118d5565b565b61080b8383836040518060200160405280600081525061115c565b610b6733610840565b610bdc5760405160e560020a62461bcd02815260206004820152603060248201527f4552433732314275726e61626c653a2063616c6c6572206973206e6f74206f7760448201527f6e6572206e6f7220617070726f7665640000000000000000000000000000000060648201526084016106b3565b610be581611976565b50565b6000610bf461012f5490565b8210610c6b5760405160e560020a62461bcd02815260206004820152602c60248201527f455243373231456e756d657261626c653a20676c6f62616c20696e646578206f60448201527f7574206f6620626f756e6473000000000000000000000000000000000000000060648201526084016106b3565b61012f8281548110610c7f57610c7f6133b6565b90600052602060002001549050919050565b600054610100900460ff1680610caa575060005460ff16155b610cc95760405160e560020a62461bcd0281526004016106b3906133cf565b600054610100900460ff16158015610ceb576000805461ffff19166101011790555b610cf785858585611a1d565b8015610d09576000805461ff00191690555b5050505050565b600081815260fd6020526040812054600160a060020a0316806105925760405160e560020a62461bcd02815260206004820152602960248201527f4552433732313a206f776e657220717565727920666f72206e6f6e657869737460448201527f656e7420746f6b656e000000000000000000000000000000000000000000000060648201526084016106b3565b6000610db96000805160206137928339815191526000611041565b9050610dd36000805160206137928339815191528261140f565b61083760008051602061379283398151915283610870565b6000600160a060020a038216610e6c5760405160e560020a62461bcd02815260206004820152602a60248201527f4552433732313a2062616c616e636520717565727920666f7220746865207a6560448201527f726f20616464726573730000000000000000000000000000000000000000000060648201526084016106b3565b50600160a060020a0316600090815260fe602052604090205490565b60c954600160a060020a03163314610eb55760405160e560020a62461bcd0281526004016106b39061342c565b60c954604051600091600160a060020a0316907f8be0079c531659141344cd1fd0a4f28419497f9722a3daafe3b4186f6b6457e0908390a360c98054600160a060020a0319169055565b610f1760008051602061377283398151915282611059565b610f665760405160e560020a62461bcd02815260206004820152601460248201527f6e6f742061206d696e746572206164647265737300000000000000000000000060448201526064016106b3565b6108378183611093565b610f8860008051602061379283398151915233611059565b80610fa65750610fa660008051602061375283398151915233611059565b80610fbb575060c954600160a060020a031633145b61100a5760405160e560020a62461bcd02815260206004820152601560248201527f5265737472696374656420746f207061757365722e000000000000000000000060448201526064016106b3565b610b41611ad5565b60008061102e6000805160206137928339815191526000611041565b905061103a8382611419565b9392505050565b600082815260976020526040812061103a9083611b62565b6000918252606560209081526040808420600160a060020a0393909316845291905290205460ff1690565b606060fc80546105a790613321565b600160a060020a0382163314156110ef5760405160e560020a62461bcd02815260206004820152601960248201527f4552433732313a20617070726f766520746f2063616c6c65720000000000000060448201526064016106b3565b33600081815261010060209081526040808320600160a060020a03871680855290835292819020805460ff191686151590811790915590519081529192917f17307eab39ab6107e8899845ad3d59bd9653f200f220920489ca2b5937696c31910160405180910390a35050565b6111663383611540565b6111855760405160e560020a62461bcd0281526004016106b390613359565b61119184848484611b6e565b50505050565b600081815260fd6020526040902054606090600160a060020a03166112275760405160e560020a62461bcd02815260206004820152602f60248201527f4552433732314d657461646174613a2055524920717565727920666f72206e6f60448201527f6e6578697374656e7420746f6b656e000000000000000000000000000000000060648201526084016106b3565b60008281526101f660205260408120805461124190613321565b80601f016020809104026020016040519081016040528092919081815260200182805461126d90613321565b80156112ba5780601f1061128f576101008083540402835291602001916112ba565b820191906000526020600020905b81548152906001019060200180831161129d57829003601f168201915b505050505090506101f580546112cf90613321565b151590506112dd5792915050565b60006101f580546112ed90613321565b9050111561134457805161132f576101f561130784611ba4565b60405160200161131892919061347d565b604051602081830303815290604052915050919050565b6101f58160405160200161131892919061347d565b50919050565b600081815260976020526040812061059290611cdd565b61137960008051602061379283398151915233611059565b80611397575061139760008051602061377283398151915233611059565b806113ac575060c954600160a060020a031633145b6113fb5760405160e560020a62461bcd02815260206004820152601560248201527f5265737472696374656420746f206d696e7465722e000000000000000000000060448201526064016106b3565b6114058383611ce7565b61080b8282611e3b565b610a878282611ef1565b600160a060020a0391821660009081526101006020908152604080832093909416825291909152205460ff1690565b60c954600160a060020a031633146114755760405160e560020a62461bcd0281526004016106b39061342c565b61147e81611f17565b61148960008261182b565b610be5600033610a7d565b6000600160e060020a031982167f780e9d6300000000000000000000000000000000000000000000000000000000148061059257506105928261201f565b600081815260ff602052604090208054600160a060020a031916600160a060020a038416908117909155819061150782610d10565b600160a060020a03167f8c5be1e5ebec7d5bd14f71427d1e84f3dd0314c0f7b2291e5b200ac8c7c3b92560405160405180910390a45050565b600081815260fd6020526040812054600160a060020a03166115cd5760405160e560020a62461bcd02815260206004820152602c60248201527f4552433732313a206f70657261746f7220717565727920666f72206e6f6e657860448201527f697374656e7420746f6b656e000000000000000000000000000000000000000060648201526084016106b3565b60006115d883610d10565b905080600160a060020a031684600160a060020a03161480611613575083600160a060020a03166116088461062a565b600160a060020a0316145b8061162357506116238185611419565b949350505050565b82600160a060020a031661163e82610d10565b600160a060020a0316146116bd5760405160e560020a62461bcd02815260206004820152602960248201527f4552433732313a207472616e73666572206f6620746f6b656e2074686174206960448201527f73206e6f74206f776e000000000000000000000000000000000000000000000060648201526084016106b3565b600160a060020a03821661173b5760405160e560020a62461bcd028152602060048201526024808201527f4552433732313a207472616e7366657220746f20746865207a65726f2061646460448201527f726573730000000000000000000000000000000000000000000000000000000060648201526084016106b3565b611746838383612091565b6117516000826114d2565b600160a060020a038316600090815260fe6020526040812080546001929061177a908490613540565b9091555050600160a060020a038216600090815260fe602052604081208054600192906117a8908490613557565b9091555050600081815260fd60205260408082208054600160a060020a031916600160a060020a0386811691821790925591518493918716917fddf252ad1be2c89b69c2b068fc378daa952ba7f163c4a11628f55a4df523b3ef91a4505050565b611813828261209c565b600082815260976020526040902061080b90826120c2565b61181382826120d7565b600160a060020a03811633146118b65760405160e560020a62461bcd02815260206004820152602f60248201527f416363657373436f6e74726f6c3a2063616e206f6e6c792072656e6f756e636560448201527f20726f6c657320666f722073656c66000000000000000000000000000000000060648201526084016106b3565b61083782826120e1565b600061103a83600160a060020a038416612148565b6101915460ff1661192b5760405160e560020a62461bcd02815260206004820152601460248201527f5061757361626c653a206e6f742070617573656400000000000000000000000060448201526064016106b3565b610191805460ff191690557f5db9ee0a495bf2e6ff9c91a7834c1ba4fdd244a5e8aa4e537bd38aeae4b073aa335b604051600160a060020a03909116815260200160405180910390a1565b600061198182610d10565b905061198f81600084612091565b61199a6000836114d2565b600160a060020a038116600090815260fe602052604081208054600192906119c3908490613540565b9091555050600082815260fd60205260408082208054600160a060020a031916905551839190600160a060020a038416907fddf252ad1be2c89b69c2b068fc378daa952ba7f163c4a11628f55a4df523b3ef908390a45050565b600054610100900460ff1680611a36575060005460ff16155b611a555760405160e560020a62461bcd0281526004016106b3906133cf565b600054610100900460ff16158015611a77576000805461ffff19166101011790555b611a7f612235565b611a87612235565b611a8f612235565b611a97612235565b611aa185856122a3565b611aa9612235565b611ab161233b565b611ab9612235565b611ac16123ec565b611ac9612235565b610cf785858585612465565b6101915460ff1615611b2c5760405160e560020a62461bcd02815260206004820152601060248201527f5061757361626c653a207061757365640000000000000000000000000000000060448201526064016106b3565b610191805460ff191660011790557f62e78cea01bee320cd4e420270b5ea74000d11b0c9f74754ebdbfc544b05a2586119593390565b600061103a8383612543565b611b7984848461162b565b611b85848484846125e7565b6111915760405160e560020a62461bcd0281526004016106b39061356f565b606081611be457505060408051808201909152600181527f3000000000000000000000000000000000000000000000000000000000000000602082015290565b8160005b8115611c0e5780611bf8816135cc565b9150611c079050600a83613600565b9150611be8565b60008167ffffffffffffffff811115611c2957611c29613059565b6040519080825280601f01601f191660200182016040528015611c53576020820181803683370190505b5090505b841561162357611c68600183613540565b9150611c75600a86613614565b611c80906030613557565b7f010000000000000000000000000000000000000000000000000000000000000002818381518110611cb457611cb46133b6565b6020010190600160f860020a031916908160001a905350611cd6600a86613600565b9450611c57565b6000610592825490565b600160a060020a038216611d405760405160e560020a62461bcd02815260206004820181905260248201527f4552433732313a206d696e7420746f20746865207a65726f206164647265737360448201526064016106b3565b600081815260fd6020526040902054600160a060020a031615611da85760405160e560020a62461bcd02815260206004820152601c60248201527f4552433732313a20746f6b656e20616c7265616479206d696e7465640000000060448201526064016106b3565b611db460008383612091565b600160a060020a038216600090815260fe60205260408120805460019290611ddd908490613557565b9091555050600081815260fd60205260408082208054600160a060020a031916600160a060020a03861690811790915590518392907fddf252ad1be2c89b69c2b068fc378daa952ba7f163c4a11628f55a4df523b3ef908290a45050565b600082815260fd6020526040902054600160a060020a0316611ec85760405160e560020a62461bcd02815260206004820152602c60248201527f4552433732314d657461646174613a2055524920736574206f66206e6f6e657860448201527f697374656e7420746f6b656e000000000000000000000000000000000000000060648201526084016106b3565b805181901561080b5760008381526101f660209081526040909120835161119192850190612e30565b600082815260656020526040902060010154611f0d813361271a565b61080b83836120e1565b60c954600160a060020a03163314611f445760405160e560020a62461bcd0281526004016106b39061342c565b600160a060020a038116611fc35760405160e560020a62461bcd02815260206004820152602660248201527f4f776e61626c653a206e6577206f776e657220697320746865207a65726f206160448201527f646472657373000000000000000000000000000000000000000000000000000060648201526084016106b3565b60c954604051600160a060020a038084169216907f8be0079c531659141344cd1fd0a4f28419497f9722a3daafe3b4186f6b6457e090600090a360c98054600160a060020a031916600160a060020a0392909216919091179055565b6000600160e060020a031982167f80ac58cd0000000000000000000000000000000000000000000000000000000014806120825750600160e060020a031982167f5b5e139f00000000000000000000000000000000000000000000000000000000145b80610592575061059282612781565b61080b8383836127bf565b6000828152606560205260409020600101546120b8813361271a565b61080b8383612847565b600061103a83600160a060020a0384166128cd565b6108378282612847565b6120eb8282611059565b15610837576000828152606560209081526040808320600160a060020a0385168085529252808320805460ff1916905551339285917ff6391f5c32d9c69d2a47ea670b442974b53935d1edc7fd64eb21e047a839171b9190a45050565b6000818152600183016020526040812054801561222b57600061216c600183613540565b855490915060009061218090600190613540565b90506000866000018281548110612199576121996133b6565b90600052602060002001549050808760000184815481106121bc576121bc6133b6565b6000918252602080832090910192909255828152600189019091526040902084905586548790806121ef576121ef613628565b60019003818190600052602060002001600090559055866001016000878152602001908152602001600020600090556001945050505050610592565b6000915050610592565b600054610100900460ff168061224e575060005460ff16155b61226d5760405160e560020a62461bcd0281526004016106b3906133cf565b600054610100900460ff1615801561228f576000805461ffff19166101011790555b8015610be5576000805461ff001916905550565b600054610100900460ff16806122bc575060005460ff16155b6122db5760405160e560020a62461bcd0281526004016106b3906133cf565b600054610100900460ff161580156122fd576000805461ffff19166101011790555b82516123109060fb906020860190612e30565b5081516123249060fc906020850190612e30565b50801561080b576000805461ff0019169055505050565b600054610100900460ff1680612354575060005460ff16155b6123735760405160e560020a62461bcd0281526004016106b3906133cf565b600054610100900460ff16158015612395576000805461ffff19166101011790555b60c98054600160a060020a0319163390811790915560405181906000907f8be0079c531659141344cd1fd0a4f28419497f9722a3daafe3b4186f6b6457e0908290a3508015610be5576000805461ff001916905550565b600054610100900460ff1680612405575060005460ff16155b6124245760405160e560020a62461bcd0281526004016106b3906133cf565b600054610100900460ff16158015612446576000805461ffff19166101011790555b610191805460ff191690558015610be5576000805461ff001916905550565b600054610100900460ff168061247e575060005460ff16155b61249d5760405160e560020a62461bcd0281526004016106b3906133cf565b600054610100900460ff161580156124bf576000805461ffff19166101011790555b82516124d3906101f5906020860190612e30565b506124df60003361182b565b6124f76000805160206137928339815191528361182b565b61251d60008051602061377283398151915260008051602061379283398151915261291c565b610cf760008051602061375283398151915260008051602061379283398151915261291c565b815460009082106125bf5760405160e560020a62461bcd02815260206004820152602260248201527f456e756d657261626c655365743a20696e646578206f7574206f6620626f756e60448201527f647300000000000000000000000000000000000000000000000000000000000060648201526084016106b3565b8260000182815481106125d4576125d46133b6565b9060005260206000200154905092915050565b6000600160a060020a0384163b1561270f576040517f150b7a02000000000000000000000000000000000000000000000000000000008152600160a060020a0385169063150b7a0290612644903390899088908890600401613641565b6020604051808303816000875af192505050801561267f575060408051601f3d908101601f1916820190925261267c9181019061367d565b60015b6126dc573d8080156126ad576040519150601f19603f3d011682016040523d82523d6000602084013e6126b2565b606091505b5080516126d45760405160e560020a62461bcd0281526004016106b39061356f565b805181602001fd5b600160e060020a0319167f150b7a0200000000000000000000000000000000000000000000000000000000149050611623565b506001949350505050565b6127248282611059565b6108375761273c81600160a060020a03166014612970565b612747836020612970565b60405160200161275892919061369a565b60408051601f198184030181529082905260e560020a62461bcd0282526106b391600401612f54565b6000600160e060020a031982167f5a05180f000000000000000000000000000000000000000000000000000000001480610592575061059282612b72565b6127ca838383612bd9565b6101915460ff161561080b5760405160e560020a62461bcd02815260206004820152602b60248201527f4552433732315061757361626c653a20746f6b656e207472616e73666572207760448201527f68696c652070617573656400000000000000000000000000000000000000000060648201526084016106b3565b6128518282611059565b610837576000828152606560209081526040808320600160a060020a03851684529091529020805460ff191660011790556128893390565b600160a060020a031681600160a060020a0316837f2f8788117e7eff1d82e926ec794901d17c78024a50270940304540a733656f0d60405160405180910390a45050565b600081815260018301602052604081205461291457508154600181810184556000848152602080822090930184905584548482528286019093526040902091909155610592565b506000610592565b600082815260656020526040902060010154819060405184907fbd79b86ffe0ab8e8776151514217cd7cacd52c909f66475c3af44e129f0b00ff90600090a460009182526065602052604090912060010155565b6060600061297f83600261371b565b61298a906002613557565b67ffffffffffffffff8111156129a2576129a2613059565b6040519080825280601f01601f1916602001820160405280156129cc576020820181803683370190505b5090507f300000000000000000000000000000000000000000000000000000000000000081600081518110612a0357612a036133b6565b6020010190600160f860020a031916908160001a9053507f780000000000000000000000000000000000000000000000000000000000000081600181518110612a4e57612a4e6133b6565b6020010190600160f860020a031916908160001a9053506000612a7284600261371b565b612a7d906001613557565b90505b6001811115612b20577f303132333435363738396162636465660000000000000000000000000000000085600f1660108110612abe57612abe6133b6565b1a7f010000000000000000000000000000000000000000000000000000000000000002828281518110612af357612af36133b6565b6020010190600160f860020a031916908160001a905350601090940493612b198161373a565b9050612a80565b50831561103a5760405160e560020a62461bcd02815260206004820181905260248201527f537472696e67733a20686578206c656e67746820696e73756666696369656e7460448201526064016106b3565b6000600160e060020a031982167f7965db0b00000000000000000000000000000000000000000000000000000000148061059257507f01ffc9a700000000000000000000000000000000000000000000000000000000600160e060020a0319831614610592565b600160a060020a038316612c3657612c318161012f8054600083815261013060205260408120829055600182018355919091527f232da9e50dad2971456a78fb5cd6ff6b75019984d6e918139ce990999420f9790155565b612c59565b81600160a060020a031683600160a060020a031614612c5957612c598382612c93565b600160a060020a038216612c705761080b81612d35565b82600160a060020a031682600160a060020a03161461080b5761080b8282612dea565b60006001612ca084610deb565b612caa9190613540565b600083815261012e6020526040902054909150808214612d0057600160a060020a038416600090815261012d60209081526040808320858452825280832054848452818420819055835261012e90915290208190555b50600091825261012e60209081526040808420849055600160a060020a03909416835261012d81528383209183525290812055565b61012f54600090612d4890600190613540565b6000838152610130602052604081205461012f8054939450909284908110612d7257612d726133b6565b906000526020600020015490508061012f8381548110612d9457612d946133b6565b6000918252602080832090910192909255828152610130909152604080822084905585825281205561012f805480612dce57612dce613628565b6001900381819060005260206000200160009055905550505050565b6000612df583610deb565b600160a060020a03909316600090815261012d60209081526040808320868452825280832085905593825261012e9052919091209190915550565b828054612e3c90613321565b90600052602060002090601f016020900481019282612e5e5760008555612ea4565b82601f10612e7757805160ff1916838001178555612ea4565b82800160010185558215612ea4579182015b82811115612ea4578251825591602001919060010190612e89565b50612eb0929150612eb4565b5090565b5b80821115612eb05760008155600101612eb5565b600160e060020a031981168114610be557600080fd5b600060208284031215612ef157600080fd5b813561103a81612ec9565b60005b83811015612f17578181015183820152602001612eff565b838111156111915750506000910152565b60008151808452612f40816020860160208601612efc565b601f01601f19169290920160200192915050565b60208152600061103a6020830184612f28565b600060208284031215612f7957600080fd5b5035919050565b8035600160a060020a0381168114612f9757600080fd5b919050565b60008060408385031215612faf57600080fd5b612fb883612f80565b946020939093013593505050565b80358015158114612f9757600080fd5b600060208284031215612fe857600080fd5b61103a82612fc6565b60008060006060848603121561300657600080fd5b61300f84612f80565b925061301d60208501612f80565b9150604084013590509250925092565b6000806040838503121561304057600080fd5b8235915061305060208401612f80565b90509250929050565b60e060020a634e487b7102600052604160045260246000fd5b600067ffffffffffffffff8084111561308d5761308d613059565b604051601f8501601f19908116603f011681019082821181831017156130b5576130b5613059565b816040528093508581528686860111156130ce57600080fd5b858560208301376000602087830101525050509392505050565b600082601f8301126130f957600080fd5b61103a83833560208501613072565b6000806000806080858703121561311e57600080fd5b843567ffffffffffffffff8082111561313657600080fd5b613142888389016130e8565b9550602087013591508082111561315857600080fd5b613164888389016130e8565b9450604087013591508082111561317a57600080fd5b50613187878288016130e8565b92505061319660608601612f80565b905092959194509250565b6000602082840312156131b357600080fd5b61103a82612f80565b600080604083850312156131cf57600080fd5b6131d883612fc6565b915061305060208401612f80565b600080604083850312156131f957600080fd5b50508035926020909101359150565b6000806040838503121561321b57600080fd5b61322483612f80565b915061305060208401612fc6565b6000806000806080858703121561324857600080fd5b61325185612f80565b935061325f60208601612f80565b925060408501359150606085013567ffffffffffffffff81111561328257600080fd5b8501601f8101871361329357600080fd5b6132a287823560208401613072565b91505092959194509250565b6000806000606084860312156132c357600080fd5b6132cc84612f80565b925060208401359150604084013567ffffffffffffffff8111156132ef57600080fd5b6132fb868287016130e8565b9150509250925092565b6000806040838503121561331857600080fd5b6131d883612f80565b60028104600182168061333557607f821691505b602082108114156113445760e060020a634e487b7102600052602260045260246000fd5b60208082526031908201527f4552433732313a207472616e736665722063616c6c6572206973206e6f74206f60408201527f776e6572206e6f7220617070726f766564000000000000000000000000000000606082015260800190565b60e060020a634e487b7102600052603260045260246000fd5b6020808252602e908201527f496e697469616c697a61626c653a20636f6e747261637420697320616c72656160408201527f647920696e697469616c697a6564000000000000000000000000000000000000606082015260800190565b6020808252818101527f4f776e61626c653a2063616c6c6572206973206e6f7420746865206f776e6572604082015260600190565b60008151613473818560208601612efc565b9290920192915050565b825460009081906002810460018083168061349957607f831692505b60208084108214156134bc5760e060020a634e487b710286526022600452602486fd5b8180156134d057600181146134e15761350e565b60ff1986168952848901965061350e565b60008b81526020902060005b868110156135065781548b8201529085019083016134ed565b505084890196505b50505050505061351e8185613461565b95945050505050565b60e060020a634e487b7102600052601160045260246000fd5b60008282101561355257613552613527565b500390565b6000821982111561356a5761356a613527565b500190565b60208082526032908201527f4552433732313a207472616e7366657220746f206e6f6e20455243373231526560408201527f63656976657220696d706c656d656e7465720000000000000000000000000000606082015260800190565b60006000198214156135e0576135e0613527565b5060010190565b60e060020a634e487b7102600052601260045260246000fd5b60008261360f5761360f6135e7565b500490565b600082613623576136236135e7565b500690565b60e060020a634e487b7102600052603160045260246000fd5b6000600160a060020a038087168352808616602084015250836040830152608060608301526136736080830184612f28565b9695505050505050565b60006020828403121561368f57600080fd5b815161103a81612ec9565b7f416363657373436f6e74726f6c3a206163636f756e74200000000000000000008152600083516136d2816017850160208801612efc565b7f206973206d697373696e6720726f6c6520000000000000000000000000000000601791840191820152835161370f816028840160208801612efc565b01602801949350505050565b600081600019048311821515161561373557613735613527565b500290565b60008161374957613749613527565b50600019019056fe65d7a28e3265b37a6474929f336521b332c1681b933f6cb9f3376673440d862a9f2df0fed2c77648de5860a4cc508cd0818c85b8b8a1ab4ceeef8d981c8956a6a49807205ce4d355092ef5a8a18f56e8913cf4a201fbe287825b095693c21775a26469706673582212205ad89d6bf622947a41a028eacfee39af612914955556c7281494572841cb7cf164736f6c634300080b0033",
  "immutableReferences": {},
  "source": "// SPDX-License-Identifier: MIT\r\n\r\npragma solidity ^0.8.0;\r\n\r\nimport \"@openzeppelin/contracts-upgradeable/token/ERC721/ERC721Upgradeable.sol\";\r\nimport \"@openzeppelin/contracts-upgradeable/token/ERC721/extensions/ERC721EnumerableUpgradeable.sol\";\r\nimport \"@openzeppelin/contracts-upgradeable/token/ERC721/extensions/ERC721BurnableUpgradeable.sol\";\r\nimport \"@openzeppelin/contracts-upgradeable/token/ERC721/extensions/ERC721PausableUpgradeable.sol\";\r\nimport \"@openzeppelin/contracts-upgradeable/access/AccessControlEnumerableUpgradeable.sol\";\r\nimport \"@openzeppelin/contracts-upgradeable/access/OwnableUpgradeable.sol\";\r\nimport \"@openzeppelin/contracts-upgradeable/utils/ContextUpgradeable.sol\";\r\nimport \"@openzeppelin/contracts-upgradeable/utils/CountersUpgradeable.sol\";\r\nimport \"@openzeppelin/contracts-upgradeable/proxy/utils/Initializable.sol\";\r\n/**\r\n * @dev {ERC721} token, including:\r\n *\r\n *  - ability for holders to burn (destroy) their tokens\r\n *  - a minter role that allows for token minting (creation)\r\n *  - a pauser role that allows to stop all token transfers\r\n *  - token ID and URI autogeneration\r\n *\r\n * This contract uses {AccessControl} to lock permissioned functions using the\r\n * different roles - head to its documentation for details.\r\n *\r\n * The account that deploys the contract will be granted the minter and pauser\r\n * roles, as well as the default admin role, which will let it grant both minter\r\n * and pauser roles to other accounts.\r\n */\r\ncontract NFTMarketplaceUpgradable is\r\n    Initializable,\r\n    AccessControlEnumerableUpgradeable,\r\n    OwnableUpgradeable,\r\n    ERC721EnumerableUpgradeable,\r\n    ERC721BurnableUpgradeable,\r\n    ERC721PausableUpgradeable\r\n{\r\n    \r\n    using StringsUpgradeable for uint256;\r\n    \r\n    function initialize(\r\n        string memory name,\r\n        string memory symbol,\r\n        string memory baseTokenURI,\r\n        address rootAdmin\r\n    ) public virtual initializer {\r\n        __NFTMarketplaceUpgradable_init(name, symbol, baseTokenURI, rootAdmin);\r\n    }\r\n\r\n    bytes32 public constant MINTER_ROLE = keccak256(\"MINTER_ROLE\");\r\n    bytes32 public constant PAUSER_ROLE = keccak256(\"PAUSER_ROLE\");\r\n    bytes32 public constant ADMIN_ROLE = keccak256(\"ADMIN_ROLE\");\r\n    \r\n    string private _baseTokenURI;\r\n\r\n    /**\r\n     * @dev Grants `DEFAULT_ADMIN_ROLE`, `MINTER_ROLE` and `PAUSER_ROLE` to the\r\n     * account that deploys the contract.\r\n     *\r\n     * Token URIs will be autogenerated based on `baseURI` and their token IDs.\r\n     * See {ERC721-tokenURI}.\r\n     */\r\n    function __NFTMarketplaceUpgradable_init(\r\n        string memory name,\r\n        string memory symbol,\r\n        string memory baseTokenURI,\r\n        address rootAdmin\r\n    ) internal initializer {\r\n        __Context_init_unchained();\r\n        __ERC165_init_unchained();\r\n        __AccessControl_init_unchained();\r\n        __AccessControlEnumerable_init_unchained();\r\n        __ERC721_init_unchained(name, symbol);\r\n        __ERC721Enumerable_init_unchained();\r\n        __Ownable_init_unchained();\r\n        __ERC721Burnable_init_unchained();\r\n        __Pausable_init_unchained();\r\n        __ERC721Pausable_init_unchained();\r\n        __NFTMarketplaceUpgradable_init_unchained(name, symbol, baseTokenURI, rootAdmin);\r\n    }\r\n\r\n    function __NFTMarketplaceUpgradable_init_unchained(\r\n        string memory name,\r\n        string memory symbol,\r\n        string memory baseTokenURI,\r\n        address rootAdmin\r\n    ) internal initializer {\r\n        _baseTokenURI = baseTokenURI;\r\n        \r\n        _setupRole(DEFAULT_ADMIN_ROLE, _msgSender());\r\n        _setupRole(ADMIN_ROLE, rootAdmin);\r\n        _setRoleAdmin(MINTER_ROLE, ADMIN_ROLE);\r\n        _setRoleAdmin(PAUSER_ROLE, ADMIN_ROLE);\r\n    }\r\n    \r\n    mapping(uint256 => string) private _tokenURIs;\r\n\r\n    function _baseURI() internal view virtual override returns (string memory) {\r\n        return _baseTokenURI;\r\n    }\r\n    \r\n    /**\r\n     * @dev See {IERC721Metadata-tokenURI}.\r\n     */\r\n    function tokenURI(uint256 tokenId) public view override returns (string memory) {\r\n        require(_exists(tokenId), \"ERC721Metadata: URI query for nonexistent token\");\r\n\r\n        string memory _tokenURI = _tokenURIs[tokenId];\r\n\r\n        // If there is no base URI, return the token URI.\r\n        if (bytes(_baseTokenURI).length == 0) {\r\n            return _tokenURI;\r\n        }\r\n        // If both are set, concatenate the baseURI and tokenURI (via abi.encodePacked).\r\n        if (bytes(_baseTokenURI).length > 0) {\r\n            \r\n            if(bytes(_tokenURI).length == 0) {\r\n                // If there is a baseURI but no tokenURI, concatenate the tokenID to the baseURI.\r\n                return string(abi.encodePacked(_baseTokenURI, tokenId.toString()));\r\n            }\r\n            \r\n            return string(abi.encodePacked(_baseTokenURI, _tokenURI));\r\n        }\r\n    }\r\n    \r\n    /**\r\n     * @dev Sets `_tokenURI` as the tokenURI of `tokenId`.\r\n     *\r\n     * Requirements:\r\n     *\r\n     * - `tokenId` must exist.\r\n     */\r\n    function _setTokenURI(uint256 tokenId, string memory _tokenURI) internal virtual {\r\n        require(_exists(tokenId), \"ERC721Metadata: URI set of nonexistent token\");\r\n        \r\n        bytes memory tempBytes = bytes(_tokenURI);\r\n        if(tempBytes.length > 0) _tokenURIs[tokenId] = _tokenURI;\r\n    }\r\n\r\n     /**\r\n    * @dev overriding the inherited {transferOwnership} function to reflect the admin changes into the {DEFAULT_ADMIN_ROLE}\r\n    */\r\n    function transferOwnership(address newOwner) public override onlyOwner {\r\n        super.transferOwnership(newOwner);\r\n        _setupRole(DEFAULT_ADMIN_ROLE, newOwner);\r\n        renounceRole(DEFAULT_ADMIN_ROLE, _msgSender());\r\n    }\r\n    \r\n    /**\r\n    * @dev overriding the inherited {grantRole} function to have a single root admin\r\n    */\r\n    function grantRole(bytes32 role, address account) public override {\r\n        if(role == ADMIN_ROLE)\r\n            require(getRoleMemberCount(ADMIN_ROLE) == 0, \"exactly one address can have admin role\");\r\n            \r\n        super.grantRole(role, account);\r\n    }\r\n\r\n    /**\r\n    * @dev modifier to check admin rights.\r\n    * contract owner and root admin have admin rights\r\n    */\r\n    modifier onlyAdmin() {\r\n        require(hasRole(ADMIN_ROLE, _msgSender()) || owner() == _msgSender(), \"Restricted to admin.\");\r\n        _;\r\n    }\r\n    \r\n    /**\r\n    * @dev modifier to check mint rights.\r\n    * contract owner, root admin and minter's have mint rights\r\n    */\r\n    modifier onlyMinter() {\r\n        require(\r\n            hasRole(ADMIN_ROLE, _msgSender()) || \r\n            hasRole(MINTER_ROLE, _msgSender()) || \r\n            owner() == _msgSender(), \"Restricted to minter.\"\r\n            );\r\n        _;\r\n    }\r\n\r\n       /**\r\n    * @dev modifier to check pause rights.\r\n    * contract owner, root admin and pausers's have pause rights\r\n    */\r\n    modifier onlyPauser() {\r\n        require(\r\n            hasRole(ADMIN_ROLE, _msgSender()) || \r\n            hasRole(PAUSER_ROLE, _msgSender()) || \r\n            owner() == _msgSender(), \"Restricted to pauser.\"\r\n            );\r\n        _;\r\n    }\r\n    \r\n    /**\r\n    * @dev This function is to change the root admin \r\n    * exaclty one root admin is allowed per contract\r\n    * only contract owner have the authority to add, remove or change\r\n    */\r\n    function changeRootAdmin(address newAdmin) public {\r\n        address oldAdmin = getRoleMember(ADMIN_ROLE, 0);\r\n        revokeRole(ADMIN_ROLE, oldAdmin);\r\n        grantRole(ADMIN_ROLE, newAdmin);\r\n    }\r\n    \r\n    /**\r\n    * @dev This function is to add a minter or pauser into the contract, \r\n    * only root admin and contract owner have the authority to add them\r\n    * but only the root admin can revoke them using {revokeRole}\r\n    * minter or pauser can also self renounce the access using {renounceRole}\r\n    */\r\n    function addMinterOrPauser(address account, bytes32 role) public onlyAdmin{\r\n        if(role == MINTER_ROLE || role == PAUSER_ROLE)\r\n            _setupRole(role, account);\r\n    }\r\n    \r\n  \r\n    // As part of the lazy minting this mint function will be called by the admin and will transfer the NFT to the buyer\r\n    function mint(address receiver,uint collectibleId, string memory IPFSHash) public onlyMinter {\r\n        _mint(receiver, collectibleId);\r\n        _setTokenURI(collectibleId, IPFSHash);\r\n    }\r\n\r\n    /**\r\n    * @dev This funtion is to give authority to root admin to transfer token to the\r\n    * buyer on behalf of the token owner\r\n    *\r\n    * The token owner can approve and renounce the access via this function\r\n    */\r\n    function setApprovalForOwner(bool approval) public {\r\n        address defaultAdmin = getRoleMember(ADMIN_ROLE, 0);\r\n        setApprovalForAll(defaultAdmin, approval);\r\n    }\r\n    \r\n    /**\r\n    * @dev This funtion is to give authority to minter to transfer token to the\r\n    * buyer on behalf of the token owner\r\n    *\r\n    * The token owner can approve and renounce the access via this function\r\n    */\r\n    function setApprovalForMinter(bool approval, address minterAccount) public {\r\n        require(hasRole(MINTER_ROLE, minterAccount), \"not a minter address\");\r\n        setApprovalForAll(minterAccount, approval);\r\n    }\r\n\r\n    /**\r\n    * @dev This funtion is to check weather the contract admin have approval from a token owner\r\n    *\r\n    */\r\n    function isApprovedForOwner(address account) public view returns (bool approval){\r\n        address defaultAdmin = getRoleMember(ADMIN_ROLE, 0);\r\n        return isApprovedForAll(account, defaultAdmin);\r\n    }\r\n\r\n    /**\r\n     * @dev Pauses all token transfers.\r\n     *\r\n     * See {ERC721Pausable} and {Pausable-_pause}.\r\n     *\r\n     * Requirements:\r\n     *\r\n     * - the caller must have the `PAUSER_ROLE`.\r\n     */\r\n    function pause() public virtual onlyPauser{\r\n        _pause();\r\n    }\r\n\r\n    /**\r\n     * @dev Unpauses all token transfers.\r\n     *\r\n     * See {ERC721Pausable} and {Pausable-_unpause}.\r\n     *\r\n     * Requirements:\r\n     *\r\n     * - the caller must have the `PAUSER_ROLE`.\r\n     */\r\n    function unpause() public virtual onlyPauser{\r\n        _unpause();\r\n    }\r\n\r\n\r\n    function _beforeTokenTransfer(\r\n        address from,\r\n        address to,\r\n        uint256 tokenId\r\n    ) internal virtual override(ERC721Upgradeable, ERC721EnumerableUpgradeable, ERC721PausableUpgradeable) {\r\n        super._beforeTokenTransfer(from, to, tokenId);\r\n    }\r\n\r\n    /**\r\n     * @dev See {IERC165-supportsInterface}.\r\n     */\r\n    function supportsInterface(bytes4 interfaceId)\r\n        public\r\n        view\r\n        virtual\r\n        override(AccessControlEnumerableUpgradeable, ERC721Upgradeable, ERC721EnumerableUpgradeable)\r\n        returns (bool)\r\n    {\r\n        return super.supportsInterface(interfaceId);\r\n    }\r\n    uint256[48] private __gap;\r\n}",
  "sourcePath": "C:\\ACCUBITS\\TASK\\DEC2021\\nft-marketplace-smartcontracts\\contracts\\NFTMarketplaceERC721Upgradable.sol",
  "compiler": {
    "name": "solc",
    "version": "0.8.11+commit.d7f03943.Emscripten.clang"
  },
  "schemaVersion": "3.4.3",
  "updatedAt": "2022-01-25T15:19:53.853Z",
  "devdoc": {
    "details": "{ERC721} token, including:  - ability for holders to burn (destroy) their tokens  - a minter role that allows for token minting (creation)  - a pauser role that allows to stop all token transfers  - token ID and URI autogeneration This contract uses {AccessControl} to lock permissioned functions using the different roles - head to its documentation for details. The account that deploys the contract will be granted the minter and pauser roles, as well as the default admin role, which will let it grant both minter and pauser roles to other accounts.",
    "kind": "dev",
    "methods": {
      "addMinterOrPauser(address,bytes32)": {
        "details": "This function is to add a minter or pauser into the contract,  only root admin and contract owner have the authority to add them but only the root admin can revoke them using {revokeRole} minter or pauser can also self renounce the access using {renounceRole}"
      },
      "approve(address,uint256)": {
        "details": "See {IERC721-approve}."
      },
      "balanceOf(address)": {
        "details": "See {IERC721-balanceOf}."
      },
      "burn(uint256)": {
        "details": "Burns `tokenId`. See {ERC721-_burn}. Requirements: - The caller must own `tokenId` or be an approved operator."
      },
      "changeRootAdmin(address)": {
        "details": "This function is to change the root admin  exaclty one root admin is allowed per contract only contract owner have the authority to add, remove or change"
      },
      "getApproved(uint256)": {
        "details": "See {IERC721-getApproved}."
      },
      "getRoleAdmin(bytes32)": {
        "details": "Returns the admin role that controls `role`. See {grantRole} and {revokeRole}. To change a role's admin, use {_setRoleAdmin}."
      },
      "getRoleMember(bytes32,uint256)": {
        "details": "Returns one of the accounts that have `role`. `index` must be a value between 0 and {getRoleMemberCount}, non-inclusive. Role bearers are not sorted in any particular way, and their ordering may change at any point. WARNING: When using {getRoleMember} and {getRoleMemberCount}, make sure you perform all queries on the same block. See the following https://forum.openzeppelin.com/t/iterating-over-elements-on-enumerableset-in-openzeppelin-contracts/2296[forum post] for more information."
      },
      "getRoleMemberCount(bytes32)": {
        "details": "Returns the number of accounts that have `role`. Can be used together with {getRoleMember} to enumerate all bearers of a role."
      },
      "grantRole(bytes32,address)": {
        "details": "overriding the inherited {grantRole} function to have a single root admin"
      },
      "hasRole(bytes32,address)": {
        "details": "Returns `true` if `account` has been granted `role`."
      },
      "isApprovedForAll(address,address)": {
        "details": "See {IERC721-isApprovedForAll}."
      },
      "isApprovedForOwner(address)": {
        "details": "This funtion is to check weather the contract admin have approval from a token owner"
      },
      "name()": {
        "details": "See {IERC721Metadata-name}."
      },
      "owner()": {
        "details": "Returns the address of the current owner."
      },
      "ownerOf(uint256)": {
        "details": "See {IERC721-ownerOf}."
      },
      "pause()": {
        "details": "Pauses all token transfers. See {ERC721Pausable} and {Pausable-_pause}. Requirements: - the caller must have the `PAUSER_ROLE`."
      },
      "paused()": {
        "details": "Returns true if the contract is paused, and false otherwise."
      },
      "renounceOwnership()": {
        "details": "Leaves the contract without owner. It will not be possible to call `onlyOwner` functions anymore. Can only be called by the current owner. NOTE: Renouncing ownership will leave the contract without an owner, thereby removing any functionality that is only available to the owner."
      },
      "renounceRole(bytes32,address)": {
        "details": "Overload {renounceRole} to track enumerable memberships"
      },
      "revokeRole(bytes32,address)": {
        "details": "Overload {revokeRole} to track enumerable memberships"
      },
      "safeTransferFrom(address,address,uint256)": {
        "details": "See {IERC721-safeTransferFrom}."
      },
      "safeTransferFrom(address,address,uint256,bytes)": {
        "details": "See {IERC721-safeTransferFrom}."
      },
      "setApprovalForAll(address,bool)": {
        "details": "See {IERC721-setApprovalForAll}."
      },
      "setApprovalForMinter(bool,address)": {
        "details": "This funtion is to give authority to minter to transfer token to the buyer on behalf of the token owner The token owner can approve and renounce the access via this function"
      },
      "setApprovalForOwner(bool)": {
        "details": "This funtion is to give authority to root admin to transfer token to the buyer on behalf of the token owner The token owner can approve and renounce the access via this function"
      },
      "supportsInterface(bytes4)": {
        "details": "See {IERC165-supportsInterface}."
      },
      "symbol()": {
        "details": "See {IERC721Metadata-symbol}."
      },
      "tokenByIndex(uint256)": {
        "details": "See {IERC721Enumerable-tokenByIndex}."
      },
      "tokenOfOwnerByIndex(address,uint256)": {
        "details": "See {IERC721Enumerable-tokenOfOwnerByIndex}."
      },
      "tokenURI(uint256)": {
        "details": "See {IERC721Metadata-tokenURI}."
      },
      "totalSupply()": {
        "details": "See {IERC721Enumerable-totalSupply}."
      },
      "transferFrom(address,address,uint256)": {
        "details": "See {IERC721-transferFrom}."
      },
      "transferOwnership(address)": {
        "details": "overriding the inherited {transferOwnership} function to reflect the admin changes into the {DEFAULT_ADMIN_ROLE}"
      },
      "unpause()": {
        "details": "Unpauses all token transfers. See {ERC721Pausable} and {Pausable-_unpause}. Requirements: - the caller must have the `PAUSER_ROLE`."
      }
    },
    "version": 1
  },
  "userdoc": {
    "kind": "user",
    "methods": {},
    "version": 1
  }
}